S014000044656D6F446F6F6D4C6173742E7372656368
S3158002000027BDFFD0AFBF002CAFBE002803A0F021D2
S31580020010A3C00018A3C0001924020005AFC2001CA9
S3158002002024020009AFC20020AFC000242402000FC0
S31580020030A3C2001824020002A3C2001927C4001C0E
S3158002004027C5002027C3002427C20018006030215C
S31580020050004038210C0080560000000027C2001C98
S31580020060AFC2001027C20020AFC200148FC4001096
S315800200708FC500140C008042000000008FC2001061
S315800200808C420000AFC2001C8FC200148C4200005A
S31580020090AFC200200800802E000000008FC300241B
S315800200A08FC2002000621023AFC200248FC20020BC
S315800200B02442FFFFAFC200208FC200200441FFF717
S315800200C0000000008FC20020284200031040000377
S315800200D00000000024020030AFC200208FC3001C43
S315800200E08FC20020006218218FC200240062102174
S315800200F003C0E8218FBF002C8FBE002827BD0030A9
S3158002010003E000080000000027BDFFF0AFBE000C30
S3158002011003A0F021AFC40010AFC500148FC2001037
S315800201208C420000AFC200008FC200148C430000D4
S315800201308FC20010AC4300008FC200148FC3000030
S31580020140AC43000003C0E8218FBE000C27BD00101F
S3158002015003E000080000000027BDFFE0AFBF001CDF
S31580020160AFBE001803A0F021AFC40020AFC50024A3
S31580020170AFC60028AFC7002C8FC2002C24420001D4
S31580020180AFC2002C8FC2002C90420000A3C2001086
S315800201908FC2002C2442FFFFAFC2002C8FC2002CDC
S315800201A090420000A3C2001193C200102C420003A9
S315800201B010400006000000008FC200248C4200001E
S315800201C0000218808FC20024AC4300008FC2002038
S315800201D08C420000000218438FC20020AC4300000C
S315800201E027C200118FC400208FC500248FC6002825
S315800201F0004038210C0080850000000003C0E82101
S315800202008FBF001C8FBE001827BD002003E00008A8
S315800202100000000027BDFFF8AFBE000403A0F02156
S31580020220AFC40008AFC5000CAFC60010AFC700143C
S315800202308FC200088C4300008FC2000C8C420000E3
S31580020240706218028FC20014904200000062182168
S315800202508FC20010AC43000003C0E8218FBE0004A9
S3118002026027BD000803E000080000000033
S7058002000078
